{
  "transactions": [
    {
      "hash": "0xe71bb65cb38e96e63bc5b970553b46a95515fe8424b3193472e6653da89520d0",
      "transactionType": "CALL",
      "contractName": null,
      "contractAddress": "0x036cbd53842c5426634e7929541ec2318f3dcf7e",
      "function": "approve(address,uint256)",
      "arguments": [
        "0x94cC0AaC535CCDB3C01d6787D6413C739ae12bc4",
        "1000000"
      ],
      "transaction": {
        "from": "0x12b2434a1022d5787bf06056f2885fe35de62bf8",
        "to": "0x036cbd53842c5426634e7929541ec2318f3dcf7e",
        "gas": "0x12b1b",
        "value": "0x0",
        "input": "0x095ea7b300000000000000000000000094cc0aac535ccdb3c01d6787d6413c739ae12bc400000000000000000000000000000000000000000000000000000000000f4240",
        "nonce": "0x1de",
        "chainId": "0x14a34"
      },
      "additionalContracts": [],
      "isFixedGasLimit": false
    },
    {
      "hash": "0xb94bbe7495d0edcd015bb0bdc3b757d4b809efb1bd5df33e1a9411cefdb41096",
      "transactionType": "CALL",
      "contractName": null,
      "contractAddress": "0x94cc0aac535ccdb3c01d6787d6413c739ae12bc4",
      "function": "exactInputSingle((address,address,uint24,address,uint256,uint256,uint160))",
      "arguments": [
        "(0x036CbD53842c5426634e7929541eC2318f3dCF7e, 0x4200000000000000000000000000000000000006, 3000, 0x12B2434a1022d5787bf06056F2885Fe35De62Bf8, 1000000, 0, 0)"
      ],
      "transaction": {
        "from": "0x12b2434a1022d5787bf06056f2885fe35de62bf8",
        "to": "0x94cc0aac535ccdb3c01d6787d6413c739ae12bc4",
        "gas": "0x26135",
        "value": "0x38d7ea4c68000",
        "input": "0x04e45aaf000000000000000000000000036cbd53842c5426634e7929541ec2318f3dcf7e00000000000000000000000042000000000000000000000000000000000000060000000000000000000000000000000000000000000000000000000000000bb800000000000000000000000012b2434a1022d5787bf06056f2885fe35de62bf800000000000000000000000000000000000000000000000000000000000f424000000000000000000000000000000000000000000000000000000000000000000000000000000000000000000000000000000000000000000000000000000000",
        "nonce": "0x1df",
        "chainId": "0x14a34"
      },
      "additionalContracts": [],
      "isFixedGasLimit": false
    }
  ],
  "receipts": [
    {
      "status": "0x1",
      "cumulativeGasUsed": "0x7cc18d",
      "logs": [
        {
          "address": "0x036cbd53842c5426634e7929541ec2318f3dcf7e",
          "topics": [
            "0x8c5be1e5ebec7d5bd14f71427d1e84f3dd0314c0f7b2291e5b200ac8c7c3b925",
            "0x00000000000000000000000012b2434a1022d5787bf06056f2885fe35de62bf8",
            "0x00000000000000000000000094cc0aac535ccdb3c01d6787d6413c739ae12bc4"
          ],
          "data": "0x00000000000000000000000000000000000000000000000000000000000f4240",
          "blockHash": "0xb18d82f311983a775dd701def568acb61ea9515b5e8d083e4697be037bb7b4dd",
          "blockNumber": "0x13faa36",
          "transactionHash": "0xe71bb65cb38e96e63bc5b970553b46a95515fe8424b3193472e6653da89520d0",
          "transactionIndex": "0x21",
          "logIndex": "0x63",
          "removed": false
        }
      ],
      "logsBloom": "0x00000000040000000000000000000000000000000000000000000000000000000000000000000000000000000000000000000000000000000000000000200000000000000000000000000000200000000000000000000000000000000000000800000000000000000000000000000000000000000000000000000000000000000000000000000000000000000000000000000400000000000000000000000010020000000000000000000000000000008000000400000000000000000000000000000000000000000000000000000000000000001000000000000000000000000010000000000000000000000020000000000000000000000000000000000000",
      "type": "0x2",
      "transactionHash": "0xe71bb65cb38e96e63bc5b970553b46a95515fe8424b3193472e6653da89520d0",
      "transactionIndex": "0x21",
      "blockHash": "0xb18d82f311983a775dd701def568acb61ea9515b5e8d083e4697be037bb7b4dd",
      "blockNumber": "0x13faa36",
      "gasUsed": "0xd88d",
      "effectiveGasPrice": "0x10e36c5",
      "from": "0x12b2434a1022d5787bf06056f2885fe35de62bf8",
      "to": "0x036cbd53842c5426634e7929541ec2318f3dcf7e",
      "contractAddress": null,
      "l1BaseFeeScalar": "0x44d",
      "l1BlobBaseFee": "0x5ead5bf",
      "l1BlobBaseFeeScalar": "0xa118b",
      "l1Fee": "0x24af6444f",
      "l1GasPrice": "0x6f8cd759",
      "l1GasUsed": "0x640"
    },
    {
      "status": "0x1",
      "cumulativeGasUsed": "0x7e7a9c",
      "logs": [
        {
          "address": "0x4200000000000000000000000000000000000006",
          "topics": [
            "0xddf252ad1be2c89b69c2b068fc378daa952ba7f163c4a11628f55a4df523b3ef",
            "0x00000000000000000000000046880b404cd35c165eddeff7421019f8dd25f4ad",
            "0x00000000000000000000000012b2434a1022d5787bf06056f2885fe35de62bf8"
          ],
          "data": "0x00000000000000000000000000000000000000000000000000000000b1c8e4fb",
          "blockHash": "0xb18d82f311983a775dd701def568acb61ea9515b5e8d083e4697be037bb7b4dd",
          "blockNumber": "0x13faa36",
          "transactionHash": "0xb94bbe7495d0edcd015bb0bdc3b757d4b809efb1bd5df33e1a9411cefdb41096",
          "transactionIndex": "0x22",
          "logIndex": "0x64",
          "removed": false
        },
        {
          "address": "0x036cbd53842c5426634e7929541ec2318f3dcf7e",
          "topics": [
            "0xddf252ad1be2c89b69c2b068fc378daa952ba7f163c4a11628f55a4df523b3ef",
            "0x00000000000000000000000012b2434a1022d5787bf06056f2885fe35de62bf8",
            "0x00000000000000000000000046880b404cd35c165eddeff7421019f8dd25f4ad"
          ],
          "data": "0x00000000000000000000000000000000000000000000000000000000000f4240",
          "blockHash": "0xb18d82f311983a775dd701def568acb61ea9515b5e8d083e4697be037bb7b4dd",
          "blockNumber": "0x13faa36",
          "transactionHash": "0xb94bbe7495d0edcd015bb0bdc3b757d4b809efb1bd5df33e1a9411cefdb41096",
          "transactionIndex": "0x22",
          "logIndex": "0x65",
          "removed": false
        },
        {
          "address": "0x46880b404cd35c165eddeff7421019f8dd25f4ad",
          "topics": [
            "0xc42079f94a6350d7e6235f29174924f928cc2ac818eb64fed8004e115fbcca67",
            "0x00000000000000000000000094cc0aac535ccdb3c01d6787d6413c739ae12bc4",
            "0x00000000000000000000000012b2434a1022d5787bf06056f2885fe35de62bf8"
          ],
          "data": "0x00000000000000000000000000000000000000000000000000000000000f4240ffffffffffffffffffffffffffffffffffffffffffffffffffffffff4e371b050000000000000000000000000000000000000036b24e73a52b8fbb06cbb6f6d40000000000000000000000000000000000000000000000000023ac4b2c29a25000000000000000000000000000000000000000000000000000000000000138a7",
          "blockHash": "0xb18d82f311983a775dd701def568acb61ea9515b5e8d083e4697be037bb7b4dd",
          "blockNumber": "0x13faa36",
          "transactionHash": "0xb94bbe7495d0edcd015bb0bdc3b757d4b809efb1bd5df33e1a9411cefdb41096",
          "transactionIndex": "0x22",
          "logIndex": "0x66",
          "removed": false
        }
      ],
      "logsBloom": "0x00000000040000000000000000000400000000000000000000040000000000000000000000000000000000100000000000000000000020000000400000000000000000000000000800000008200000000000000000000000000000000000000800000000000000000000000000000000000000000000000000000010000800000000000000000000000000000000000000000400002000000000000000000010000000004000000000000000000000008000000400000000000000008000000000000002020000000000000000000000000000001000000000000000000100000000000000000000000000000020000000000000000000000000000000000000",
      "type": "0x2",
      "transactionHash": "0xb94bbe7495d0edcd015bb0bdc3b757d4b809efb1bd5df33e1a9411cefdb41096",
      "transactionIndex": "0x22",
      "blockHash": "0xb18d82f311983a775dd701def568acb61ea9515b5e8d083e4697be037bb7b4dd",
      "blockNumber": "0x13faa36",
      "gasUsed": "0x1b90f",
      "effectiveGasPrice": "0x10e36c5",
      "from": "0x12b2434a1022d5787bf06056f2885fe35de62bf8",
      "to": "0x94cc0aac535ccdb3c01d6787d6413c739ae12bc4",
      "contractAddress": null,
      "l1BaseFeeScalar": "0x44d",
      "l1BlobBaseFee": "0x5ead5bf",
      "l1BlobBaseFeeScalar": "0xa118b",
      "l1Fee": "0x339509e2d",
      "l1GasPrice": "0x6f8cd759",
      "l1GasUsed": "0x8c9"
    }
  ],
  "libraries": [],
  "pending": [],
  "returns": {},
  "timestamp": 1737667405,
  "chain": 84532,
  "commit": "7e6cd68"
}